:1010000078FFE4B8200118F6D8F99000007F007E40
:1010100007E4F0A3DFFCDEFA758120022FD29004F2
:1010200003EFF0E0FF24021213BDE0601AEF121488
:10103000A21210B5121165400E900403E0240212B2
:1010400013BDE4F07F01227F002200022BBEEFD30C
:101050009403500D1212A9F583E5822D1210E9E4D4
:10106000F022000230F975F002122A25E0FCA3E01C
:10107000FD75F08AEFA42444F582E5F03400F58391
:10108000EE75F002022A25900402E0FF75F002A43A
:1010900024D0F582E5F03401F583E0FCA3E0FDEF18
:1010A00075F002A42426F582E5F03400F58322755C
:1010B000F004122A25E0F8A3E0F9A3E0FAA3E0FB8C
:1010C0009002E9E0FCA3E0FDA3E0FEA3E02290048F
:1010D0001EE0FF90041DE0FE75F08AA424A7F582AF
:1010E000E5F03400F583E5822FF582E43583F5835E
:1010F0002290041FE0FEA3E0FF90041DE0FD75F0C8
:101100008AA4247AF582E5F03400F58322F583EC95
:101110008DF01229AB900401E075F08AA42468F5E3
:1011200082E5F0340022EF2456FFEE34FAFE7C0014
:101130007D0A1229447D46122956EF24AAFFEE3477
:1011400005FEEB75F002A42420F582E5F03400F5ED
:101150008322E0FCA3E0FDEF75F08AA42456F5821B
:10116000E5F0340022902A6EC39BFBEE9AFAED99CB
:10117000F9EC98F8E493FE740193FFE4FCFDC302DC
:1011800029D775F002EBA4241AF582E5F03400F5B6
:1011900083E0FCA3E0FD75F002EBA42414F582E5E6
:1011A000F03400F5832274F7902ECBF07428902E43
:1011B000C9F0902EC67416F0902ECA22F583E493DF
:1011C000FC740193FD75F002EFA42290041DE0FF72
:1011D00075F08AA42432F582E5F03400F583227597
:1011E000F08AA4248CF582E5F03400F583EC75F0E8
:1011F00002022A2590041DE0FF75F08AA42444F51C
:1012000082E5F03400F58322EB25E0249EF582E4AC
:10121000342BF58322E04401F0E4900013F09002B7
:10122000D92275F002EBA4241AF582E5F03400F51A
:10123000832290041DE0FF75F08AA4248CF582E5DA
:10124000F03400F58322900402E0FF24E2F582E40A
:101250003401F58322F074E82EF582E43401F5833D
:1012600022FFE0FCA3E0FDC3EF9DFFEE9CFEA3E0A8
:10127000FCA3E0FDC3EF9DFFEE9C22F0A3F0A3F0E2
:10128000A3F0A3F0A3F0A32224D6F582E5F0340165
:10129000F583ECF0A3EDF0EF25E022E0FF25E0245C
:1012A00003F582E43404F58322EF75F009A424EDFC
:1012B000F582E4340222EF75F009A42452F582E4A9
:1012C00034022290041EE0FF90041DE075F08AA411
:1012D000249EF582E5F0340022E4F075F08AEEA455
:1012E00024B0F582E5F0340022900421E0FDEF9D6A
:1012F0007480F86E982290041DE0FFA3E0FD22EFB9
:101300002448FFEE34FEFE7C007D0A1229447D3223
:10131000122956EF24B8FFEE3401FE75F002EB22DD
:10132000900402E024E5F582E43401F58322EF2500
:10133000E0240FF582E4340422E0FEA3E0C39D2202
:10134000900402E0FF75F002A424DCF582E5F0349D
:101350000122EDF0CBEFCBEBD394032275F08AEEB4
:10136000A424B9F582E5F0340022F07482902E4F67
:10137000F0902EC322E04406F09000137401F02296
:1013800075F002EF122A25E0FCA3E0FD75F08A2239
:10139000E0FEA3E0FFD32275F08AEDA424BAF58223
:1013A000E5F03400F5832290037BE054F0F02274E2
:1013B000F62BF582E43401F5832274022BF582E4E6
:1013C0003400F5832274102BF582E43402F5832275
:1013D00074DA2BF582E43402F58322C39BFBEE9A88
:1013E000FAED99F9EC98F8229FEE6480F8E06480B9
:1013F0009822D3FCEF9DEC6480F8EE64809822E0A4
:10140000249EF582E43400F583E0640122242CF567
:1014100082E5F03400F583ECF0A3EDF00F22E0FC60
:10142000A3E0FDEC541F22EE8FF01229AB75F08A79
:10143000ED2275F08AA424A7F582E5F03400F58347
:10144000E58222902ECBF0902EC97420F0902EC60B
:101450007416227480F0A3E4F0A3747FF0A374FFE9
:10146000F022E49001ECF090024CF02274019324FD
:10147000C8FFE4933400FE2275F024A42408F5820A
:10148000E43403F5832275F024A4246DF582E4345A
:1014900002F5832225E025E024F9F582E43401F504
:1014A000832225E025E02405F582E43400F583223B
:1014B00025E025E0243FF582E43402F5832225E08F
:1014C00025E024DDF582E43402F5832290041DE05A
:1014D000FFA3E0FD22F58375F002EF022A259004B8
:1014E00002E0900401F022F074E92EF582E4340168
:1014F000F583E4F022E0FF900403E0FEEFC8EEC8BD
:10150000082290037BE0440A22902EC5E4F0902E3E
:10151000CDF0A3F022F582E43402F58322940AEEA2
:101520006480948022E4F0A3F075F08A22902EC6A5
:10153000F0902EC57401F0227C007D06022956F041
:101540009001EB747EF0E4A3F022E0FCA3E0C39FE3
:10155000FFEC9EFE22740193240AFDE493340022E2
:1015600075F004122A250229E8C3EF94F6EE648090
:10157000947F22ECF0A3EDF090041DE02290040291
:10158000E004F022E0FEA3E0FFC3229FEE6480F8B7
:10159000E064809822F09001EDF090024DF022E09E
:1015A000FCA3E0FDC39FEC9E22E4900402F09004B3
:1015B00002E0FDC394095023E0FF75F0021211D33D
:1015C000E0FAA3E0FB75F002EF1211FCEAF0A3EBE6
:1015D000F0E4FF12189912157D80D3E4900401F015
:1015E000900012E0FF900401E0C39F4003021893B3
:1015F00012129BE4F0A3F0EF25E02409F582E43415
:1016000004F583E4F0A3F012132EF583E4F0A3F0C5
:10161000900415121453A3121453EF7003021840D0
:10162000E4900402F0900402E0FDC3940950189085
:101630000401E0FF122195900401E0FFA3E0FD12F8
:10164000271912157D80DEE4900402F0900402E078
:10165000FFC3940940030217AD749E2F1214026059
:1016600010900401E075F08A121360F583E0B40174
:1016700018121115F583C083C082900402E0D08255
:10168000D083121081E4F0A3F0900402E0FF700315
:101690000217A7900401E0FE1211191214D5E0FC04
:1016A000A3E0C39406EC64809480501C75F08AEE2D
:1016B00012111CF583C083C082900402E0D082D056
:1016C00083121081E4F0A3F0900401E064027067DB
:1016D000E0FF121119F583C083C082900402E0FE7E
:1016E000D082D083121081E0FCA3E0FD12132E12F1
:1016F000110D12107E12158490041AE09004191234
:1017000013E85005EEF0A3EFF0D390041CE0900432
:101710001B1213E850030217A7121115F583C0839B
:10172000C082900402E0D082D083121081E0FFA337
:10173000E090041B0217A2900401E0FF121119F5BA
:1017400083C083C082900402E0FED082D083121056
:1017500081E0FCA3E0FDEF25E02403F582E43404FE
:1017600012110D12107E121584900416E0900415CB
:1017700012158B5005EEF0A3EFF0D3900418E09013
:10178000041712158B4020121115F583C083C082F7
:10179000900402E0D082D083121081E0FFA3E09099
:1017A0000417CFF0A3EFF012157D02164C90040140
:1017B000E0F96402703BE912132FF583E0FEA3E029
:1017C000900419121261FEE912132FF583EEF0A3B3
:1017D000EFF0121538EF25E0FFEE33FE900401E044
:1017E000FD12132FF583E0FAA3E02FFFEA3EFE80FF
:1017F00032900401E012129DE0FEA3E09004151265
:101800001261FE121538900401E0FD75F08A121382
:101810009BEEF0A3EFF01213971213909402EE9444
:1018200000500BED12129DEEF0A3EFF08012121398
:1018300097E0FEA3E0FFED12129DEE8FF01229ABB0
:10184000900401E0FF75F08AA42458F582E5F03495
:1018500000F583E0FCA3E01211C4121227ECF0A300
:10186000EDF090040112129BE0FCA3E01211C412EF
:101870001227E0FEA3E02DFFEE3CFE900401E07590
:10188000F00212119AEEF0A3EFF0900401E004F0E0
:101890000215E0E49001EEF02290041DEFF0A3EDBC
:1018A000F09004217403F0ED70037402F090041DB5
:1018B000E0FF121158F583C083C08290041EE0FE41
:1018C000D082D083121066121339FFEE9CFE900472
:1018D0001FF0A3EFF012369CC31212E94003021965
:1018E000921210F1C083C08290041EE0FCD082D01E
:1018F00083121081121427121101EC12108112139D
:101900009012151D40241210F9C083C08290041E4D
:10191000E0FCD082D083121081E4F0A3F0ED12112C
:10192000581211EBE475F001802B121569502990C3
:10193000041DE0FF1210FEC083C08290041EE0FE72
:10194000D082D083121081E4F0A3F012115712104C
:101950007E74FFF5F01229AB1212F612104E12121D
:10196000F61234171212F61231A7EF7003021AB5ED
:1019700090041EE0FF90041DE0FE1212CC1210E451
:10198000E4F0EF6003021AB512135CF583E4F00291
:101990001AB590041EE07035A3E0FEA3E0FF1236F6
:1019A0009C900421E02402FDE4331213F24009125A
:1019B00012C31210E47401F0121AF3D31212E940A8
:1019C0002C90041DE075F08A121360801B121AF32C
:1019D000900421E0FDD31212EE40121212C3F583DF
:1019E000E5822FF582E43583F5837401F01210F15E
:1019F000C083C08290041EE0FCD082D0831210818C
:101A00001214271211011211ED12139094C8EE64F2
:101A100080948040231210F9C083C08290041EE09D
:101A2000FCD082D083121081121525ED12115B12A9
:101A300011EBE475F0018031C3EF9438EE648094CB
:101A40007F502990041DE0FF1210FEC083C08290D9
:101A5000041EE0FED082D083121081E4F0A3F012C5
:101A6000115712107E74FFF5F01229ABC390041FBA
:101A7000E06480948050321212F61233DE1212F6B5
:101A80001231FAEF602990041D1211F7C083C08251
:101A900090041EE0FED082D08312108112115212E7
:101AA000107EECF0A3EDF080061212F612104E122A
:101AB00012F612362E90041DE0FF121158F583C065
:101AC00083C08290041EE0FED082D0831210661282
:101AD0001339FFEE9CFE90041D121118F583C0838C
:101AE000C08290041EE0D082D083121081EEF0A359
:101AF000EFF02290041FE0FEA3E0FF12369C22E4E8
:101B0000900402F0900402E0FFC394094003021D18
:101B100048EF902EC87014E0545FF0A3746AF09000
:101B20002EC3744AF0A37401F08012E044F0F0A3D5
:101B3000742AF0902EC374F0F0A3740AF09004029B
:101B4000E0902A5D93902ECAF0E4900401F090009A
:101B500012E0FF900401E0FEC39F4003021D3F74AA
:101B60004F2E121515E0FF900403F0E4F5E2EFC3E9
:101B70009408503B741512152DC083C0821214F5C1
:101B80008002C333D8FCD082D083F0902ECD740174
:101B9000F0C083C082E0FFC8EEC8088002C333D81B
:101BA000FCD082D083F0902EC074C1F0021CC5908E
:101BB0000403E024F8F0741612152DC083C08212BD
:101BC00014F58002C333D8FCD082D083F0902ECE9F
:101BD0007401F0C083C082E0FFC8EEC8088002C371
:101BE00033D8FCD082D083F0EEB405061211A6746F
:101BF0003FF0EEB40618902ECB74F7F07422121159
:101C0000AE743FF0902EC37470F0A37408F0EE64CD
:101C1000076003021CBF900402E0FF64017003022E
:101C20001C72EF640270101211A6743FF07401125E
:101C3000136D74C0021CBAEF6403700E74F41211B9
:101C4000A8743F12136A74F0801BEF6404701E9036
:101C50002ECB74F41211AB743FF0902E4F7402F03F
:101C6000902EC37440F0A37406F0021CBFEF64050D
:101C7000700D1211A6743FF0902E4F74828020EFE9
:101C80006406700C1211A6743E12136A742080153B
:101C9000EFB4071874F4121443F0902E4F7402F04E
:101CA000902EC37440F0A37407F08013EFB4080FB4
:101CB00074F712144312136A7470F0A37408F0904E
:101CC0002EC074C2F0E4FF900000742EF0A3E4F084
:101CD000900401E0244F121515E0900403F0E5E2B2
:101CE00020E2050FEFB4C8DF53E2FB1215099004A0
:101CF00003E0FD75F002A4FFAEF0900001E02FF0CC
:101D0000900000E03EF0ED902A8E93FF900000E4FA
:101D100075F0021229C185F082F583121387EF1244
:101D200011D3C083C082900402E0D082D08312100D
:101D300081ECF0A3EDF0900401E004F0021B4E9062
:101D40000402E004F0021B049001EE7401F0229002
:101D500001F3E0FE703B9001F5E06402705B9002DD
:101D60004E04F09001E3E0B401031213799001E412
:101D7000E0B401069002D97401F090038EE0B42023
:101D8000089003747401F08005E4900374F07F02FE
:101D900022EEB401249001F5E0B4021D90024E74CD
:101DA00001F090038EE0B420089003747401F08079
:101DB00005E4900374F07F0222E4FE900012E0FF3D
:101DC000EEC39F4003021F739001F3E0FC704A12C0
:101DD0001256E06401704274E22E12124DE0FF7060
:101DE000161213A7EEB40104E04409F0EE64027089
:101DF00021121502F0801BEF640170161213A7EE7A
:101E0000B40104E04401F0EEB4020790037BE04427
:101E100002F0121256E4F0C28AEC64016003021F61
:101E20006F121256E064016003021F6F74E22E12FB
:101E3000124DE0FC6003021EC41213A7EE64017091
:101E40003A90024DE0FD6401701B90024CE090035B
:101E50007BB40109E044091212180480151212150E
:101E60001215958016ED90037BB4020BE044051229
:101E700012181214E78004121215F0EE64026003C7
:101E8000021F6890024DE0FF6401701C90024CE05C
:101E900090037BB40106121375E48021E044041220
:101EA0001218121595021F68EF90037BB40205E02B
:101EB00044058003E04404F0E4900013F09002D95C
:101EC000F0021F68EC64016003021F681213A7EEA2
:101ED0006401704990024CE0FFB40208121502122E
:101EE00013788013EF640170269001EDE090037B7E
:101EF000B4010C121375E49002D91214E7801EE0AD
:101F00004402121378E49002D9F0121463800E9008
:101F1000037BE04402121378E49002D9F0EE6402ED
:101F2000704690024CE0B40210121502F09002D9F3
:101F30007401F0900013F0802F9001ECE0640170C8
:101F40001C90024DE090037BB40105E0440980132E
:101F5000E0440812121804F0121462800B90037B04
:101F6000E0440812121804F0121256E4F0C28A0E6D
:101F7000021DBB7F0422900401747EF09001F3E007
:101F8000600302208D900402F0900012E0FF9004A4
:101F900002E0FEC39F400302206C74E22E12124D39
:101FA000E0600302204474E52E121326E0FF70283F
:101FB000900402E075F002A424D6F582E5F0340125
:101FC000F583E0FCA3E0FD75F002EE1210A3E0FA49
:101FD000A3E0C39DEA9C500FEF6401705B12108771
:101FE000121339EE9C4051900402E0FF900401F07E
:101FF0001213247401F074E22F12124D7401F09048
:1020000001EBE0FFB47E14900402E0FE9001EBF0DF
:10201000A374011212557401F0800D900402E06F58
:1020200060069001EC7402F0900402E0FF12365456
:10203000900402E0FF1235C012218B60261213209B
:10204000E4F0801F121340121098121339EE9C40D6
:102050000C1214DE123482EF60090221371212468C
:10206000123538900402E004F0021F899001E3E089
:10207000701BA3E070179001ECE0D39400400E9029
:1020800001EBE024E8121259740112153F9001F39C
:10209000E06401600302217C900402F0900012E0F1
:1020A000FE900402E0FFC39E400302217C12101E3A
:1020B000EF6003121462900402E012124BE07061B0
:1020C000121087121339EE9C403B1214DE12124B91
:1020D0007401F09001ECE004F090024CF0900402E6
:1020E000E0FF24E81212597401F0123654900402F1
:1020F000E0FF123663900402E0FF1235869004027E
:10210000E0FF1235C012218B6005121320E4F0901D
:102110000402E0FF1234E3EF6059E49001ED022184
:102120006E121340121098121339EE9C40191214BB
:10213000DE123482EF603C9001F57402F0900402EC
:10214000E012124BE4F022121246123538900402CB
:10215000E0FF123672900402E0FF1235A3900402F1
:10216000E024E81212597401F09001EDE004F090BF
:10217000024DF0900402E004F002209C900401E083
:10218000FF9001F1E06F6002EFF022900402E0FFA7
:10219000123450EF2290041DEFF0A3EDF0900422D2
:1021A0007405F0A374FBF09004217406F0ED603F19
:1021B00090009EE064017002800890041E1213FFDC
:1021C000702D1211CBC083C08290041EE0FED0821D
:1021D000D083121066121573121237C083C082901A
:1021E000041EE0D082D083121081E4F0A3F022908C
:1021F000041D1211F7C083C08290041EE0FED0823D
:10220000D083121081121387EFA42432F582E5F0F7
:10221000340012107E121339FFEE9CFE90041FF062
:10222000A3EFF012369C900421E0FDC31212EE40A1
:102230000302231B1210CEE06401703575F08AEEA4
:1022400012111CF583EF1211EEE0FEA3E0C312158C
:102250001D40030223601211CBC083C08290041E74
:10226000E0FED082D083121066ECF0A3EDF00223E2
:102270006090041FE0FEA3E0FF90041DE0FD121239
:1022800037C083C08290041EE0FCD082D08312103D
:1022900081EE8FF01229ABED1211DFE0FEA3E0FF1B
:1022A000900422E0FD3395E01213F2402112123225
:1022B000C083C08290041EE0FED082D083121081C1
:1022C000E4F0A3F0121071E475F0010223159004FC
:1022D0001DE0121237C083C08290041EE0D082D06D
:1022E00083121081E0FEA3E0FF900423E0FD33950C
:1022F000E0C31213F35069121232C083C0829004FB
:102300001EE0FED082D083121081E4F0A3F0121000
:102310007174FFF5F01229AB0223601211CBC08358
:10232000C08290041EE0FED082D083121066121587
:1023300073FF121119F583C083C08290041EE0FE62
:10234000D082D083121081E0FCA3E0C3940AEC6435
:10235000809480400BEF1214322E1210E97401F0B9
:102360001210CEE0640170281212DB1210E4E004B7
:102370001212DA1210E4E0D39405401490041EE027
:10238000FF75F08AEE1210DB1212D91210E4E4F09D
:10239000229001F5E024FE601E14700302245B14F9
:1023A00070030225172403600302255A9001F57477
:1023B00002F0E490024BF09001F57403F090024EAD
:1023C000E064016003022458F09001F3E0FD702006
:1023D000C28A1213A7900013E06009E4F090037B17
:1023E000E04409F09002D9E06006E4F0121502F032
:1023F000ED6401600302255A1213A7900013E0FF59
:1024000070099002D9E0700302255AEF6012900221
:10241000D9E0600C121219F090037BE0440580347F
:10242000900013E060129002D9E0700C12121AF0C2
:1024300090037BE04401801C900013E060030225C0
:102440005A9002D9E0700302255A121219F0900333
:102450007BE04404F0C28A22022D8E121AFF900102
:10246000EEE070030224F890024BE004F0E49004E4
:1024700000F0900012E0FF900400E0C39F5079E468
:10248000FF900400E0FE1211D0121380EE12115BD7
:102490001214D5ECF0A3EDF0900400E0FE1211D080
:1024A000121380EE1211FC1214D7121417EFB40994
:1024B000D0900400E0FF1210A0E4F0A3F0EF12119E
:1024C000437404F0A3E4F0EFB40110E4900385F04A
:1024D000A3F09003897404F0E4A3F0EFB40210E4D5
:1024E000900387F0A3F090038B7404F0E4A3F090C2
:1024F0000400E004F002247290024BE0C394034015
:1025000059900011747EF0E49001EFF090024BF0CE
:102510009001F57404F022121AFF9001EEE0603A87
:102520001215A9E4900400F0900012E0FE9004005F
:10253000E0FFC39E50161233681232E4900400E0AC
:10254000FF12255B900400E004F080DC1234B4122A
:102550001F76121D4F9001F5EFF022CBEFCB121238
:1025600022E0FEA3E0FF12119612159F50030226EF
:1025700034E42DFFEC3404FE12122212126F1211F9
:1025800041EEF0A3EFF0121222E0FEA3E0FF1211E1
:102590009612154A75F002EB1210A3EEF0A3EFF0BD
:1025A000121208740193240A12147175F002EB12CE
:1025B00010A3E0FCA3E0FDD39FEC9E403412120870
:1025C00012146CC3ED9FEC9E5027121208E493FE88
:1025D000740193FF75F002EB1210A312154A7C00F0
:1025E0007D03122956121208121555CD2FFFED80CA
:1025F0003312120812146C75F002EB1210A31215AC
:102600009F406D121208E493FE740193FFC3ED9F87
:10261000FFEC9EC313FEEF13FF121208121555FCB8
:10262000ED2FFFEC3EFE75F002EB1210A3EEF0A3CF
:10263000EFF0803C121196E0FEA3E0FF121222E0C0
:10264000FCA3E0C39FEC9EC3940475F002EB501210
:102650001210A3E4F0A3F01211427404F0A3E4F00A
:10266000800E1210A3E4F0A3F0121142E4F0A3F0E4
:10267000EB6401704F75F002EB1210A312139094EB
:10268000B8EE9401400B1212FF1210A3EEF0A3EF6C
:10269000F075F002EB1210A312141E900385F0EDFA
:1026A000A3F012114212139094AAEE94054008125E
:1026B0001126EEF0A3EFF012114212141E900389BE
:1026C000F0EDA3F0EB6402704F75F002EB1210A373
:1026D00012139094B8EE9401400B1212FF1210A343
:1026E000EEF0A3EFF075F002EB1210A312141E909F
:1026F0000387F0EDA3F012114212139094AAEE9406
:10270000054008121126EEF0A3EFF0121142121448
:102710001E90038BF0EDA3F02290041DEFF0A3EDCB
:10272000F09004217407F0ED70037404F090009EA3
:10273000E064017002800890041E1213FF703A12C8
:1027400011F4C083C08290041EE0FED082D08312B8
:10275000108112115212107EECF0A3EDF090041DC6
:10276000121118F583C083C08290041EE0D082D07D
:1027700083121081E4F0A3F02290041DE0FF1211F7
:1027800058F583C083C08290041EE0FED082D083BF
:10279000121066121339FFEE9C90041FF0A3EFF0A5
:1027A00090041D121323E06007E490041FF0A3F0CF
:1027B00090041FE0FEA3E0FF12369C900421E0FD90
:1027C000C31212EE400302285490041FE0FEA3E05F
:1027D000FF90041D1210FCC083C08290041EE0FC18
:1027E000D082D0831210811214271211011211ED20
:1027F00012139012151D402690041D1210FCC08368
:10280000C08290041EE0FCD082D083121081121589
:1028100025ED12115B1211EBE475F001802B1215FE
:1028200069502990041DE0FF1210FEC083C0829001
:10283000041EE0FED082D083121081E4F0A3F012D7
:10284000115712107E74FFF5F01229AB1214CC123E
:10285000104E8038C390041FE064809480502D1285
:1028600014CC1233DE1214CC1231FAEF601E1211A6
:10287000F4C083C08290041EE0FED082D083121088
:102880008112115212107EECF0A3EDF090041DE0C5
:10289000FF121158F583C083C08290041EE0FED061
:1028A00082D083121066121339FFEE9CFE90041D35
:1028B000121118F583C083C08290041EE0D082D02C
:1028C00083121081EEF0A3EFF022BB010689828A09
:1028D00083E0225002E722BBFE02E32289828A8340
:1028E000E49322BB010CE58229F582E5833AF58366
:1028F000E0225006E92582F8E622BBFE06E92582A1
:10290000F8E222E58229F582E5833AF583E4932211
:10291000BB010689828A83F0225002F722BBFE01A6
:10292000F322F8BB010DE58229F582E5833AF583B0
:10293000E8F0225006E92582C8F622BBFE05E9250B
:1029400082C8F222EF8DF0A4A8F0CF8CF0A428CE9C
:102950008DF0A42EFE22BC000BBE0029EF8DF0846A
:10296000FFADF022E4CCF875F008EF2FFFEE33FE58
:10297000EC33FCEE9DEC984005FCEE9DFE0FD5F08F
:10298000E9E4CEFD22EDF8F5F0EE8420D21CFEAD98
:10299000F075F008EF2FFFED33FD4007985006D596
:1029A000F0F222C398FD0FD5F0EA22C5F0F8A3E0BB
:1029B00028F0C5F0F8E582158270021583E038F042
:1029C00022A3F8E0C5F025F0F0E58215827002152B
:1029D00083E0C838F0E822EB9FF5F0EA9E42F0E988
:1029E0009D42F0E89C45F022ECF0A3EDF0A3EEF060
:1029F000A3EFF022A8828583F0D083D082122A0B25
:102A0000122A0B122A0B122A0BE473E493A3C58338
:102A1000C5F0C583C8C582C8F0A3C583C5F0C5830A
:102A2000C8C582C822A42582F582E5F03583F583E6
:102A300022EF4E6012EF60010EEDBB010B89828A1E
:102A400083F0A3DFFCDEFA2289F05007F709DFFCF0
:102A5000A9F022BBFEFCF309DFFCA9F0223F3F3FB7
:102A60003F3F3F3F3F3F00320032177002580004A3
:102A7000001E000A000A000F0064000A000A00009D
:102A800000000000000000000000000101010D0E28
:102A90000F030405060708090A0B0C000102002DAC
:102AA000002D002D002D002D002D002D002D002DBE
:102AB000002D002D002D002D002D002D002D0032A9
:102AC0000032003200320032003200320032003276
:102AD0000032003200320032003200320032002375
:102AE00000230023002300230023002300230023CE
:102AF0000023002300230023002300230023002DB4
:102B0000002D002D002D002D002D002D002D002D5D
:102B1000002D002D002D002D002D002D002D005A20
:102B2000005A005A005A005A005A005A005A005AD5
:102B3000005A005A005A005A005A005A005A0064BB
:102B40000064006400640064006400640064006465
:102B50000064006400640064006400640064005069
:102B600000500050005000500050005000500050E5
:102B70000050005000500050005000500050002DF8
:102B8000002D002D002D002D002D002D002D002DDD
:102B9000002D002D002D002D002D002D002D007882
:102BA0000078007800780078007800780078007865
:102BB0000078007800780078007800780078C0E02D
:102BC000C083C082C0D0E8C0E0E9C0E0EAC0E0EB6A
:102BD000C0E0EFC0E0D2AFE5DB30E415E5DB30E18B
:102BE00002802290037AE5DFF09003FBE4F0022CF0
:102BF00097E5DB30E5059003778038E5DB30E126AB
:102C0000E5DB30E0119003FD12351212351B12285E
:102C1000E3F5DF022C979003FCE064017079208AD1
:102C200076D28A022C979003FBE0700DA3E5DFF0CB
:102C30009003FB7401F0022C979003FCE090301796
:102C400093FFB4FF0E90037AE5DFF09003FCE004FD
:102C5000F0803EEF640F9003FD702B12351290034D
:102C6000FCE0FF12352F540F1229109003FD12358E
:102C7000129003FCE0FF04F012352FFFE5DF54F063
:102C80004F122910800B12351212351BE5DF122965
:102C900022900379E004F075DBFFD0E0FFD0E0FB89
:102CA000D0E0FAD0E0F9D0E0F8D0D0D082D083D014
:102CB000E03290038EE0FE64107053FF900012E04B
:102CC000FDEFC39D4003022D63EF25E0243EF58216
:102CD000E4342B1211BC121288241EF582E4342B2A
:102CE0001211BC24D0F582E5F03401121290245E5A
:102CF000F582E4342B1211BC121349121290247E77
:102D0000F582E4342B1211BC12140D022CBCEE64BB
:102D1000207062FF900012E0FEEFC39E5045EF2549
:102D2000E024BEF582E4342A1211BC121288249EDB
:102D3000F582E4342A1211BC24D0F582E5F0340186
:102D400012129024DEF582E4342A1211BC121349C7
:102D500012129024FEF582E4342A1211BC12140DD2
:102D6000022D149001D2A3E090037FF09001D4A330
:102D7000E0900380F0900391E0FEB410079001F31F
:102D80007401F022EEB42005E49001F3F0227E01FC
:102D90007FDF7D007B017A007914122A31123150D5
:102DA000900374E090038E70057410F0800374201B
:102DB000F0122CB2E4FE900012E0FFEEC39F507CB4
:102DC000E4FC75F08AEE1211011211ED121525EED8
:102DD0001212CFF583E5822C1210E9E4F0EE121105
:102DE000DFE4F0A3F0EE1214322C1210E91212D923
:102DF000F583E5822C1210E9E4F0CFEECFCDECCDD7
:102E000012104E12362E0CEC640970B612135CF5DB
:102E100083E4F0CFEECF12365412367212366312BC
:102E2000368174E22E12124DE4121255E412153F4F
:102E3000A3F090024CF0A3F00E022DB69001F174B5
:102E40007EF0900011F0E49001F0F022E490040292
:102E5000F0FF900401F0EF14601E14603514604C14
:102E600014605B240470749004037401F0A3742F45
:102E7000F0A37458F0022ED512350F9000011228DD
:102E8000E3FED3941F40031235281228CA6E704BFC
:102E9000804312350F9000021228E3FED3940640BF
:102EA000031235281228CA6E7031802912350F900E
:102EB00000031228E3FE1228CA6E701F8017123515
:102EC0000F9000041228E3FE648B60031235281271
:102ED00028CA6E7006900401E004F00FEF640560EC
:102EE00003022E56900401E0B40504A37401F0908F
:102EF0000402E0FD600790038FE0547FF0CFEDCF38
:102F000022758A50538AEF9004277411F09004259B
:102F10007422F09004287433F075997F759A80E4D8
:102F2000FFFEC29620970AD296309705E4900427B8
:102F3000F00FBF00010EEF640A4E70E67590FF754A
:102F4000993F759AC0E4FEFF2097069004257427E8
:102F5000F020960C9004257426F02097037428F036
:102F60000FBF00010EEF640A4E70DDE4F5AD75AEE3
:102F7000F075AF09F5AC7589FF75913F75991FF52F
:102F80009675931FF59BF595F592F59A75800CD281
:102F90008A90042604F02202332CE493A3F8E493ED
:102FA000A34003F68001F208DFF48029E493A3F83C
:102FB0005407240CC8C333C4540F4420C8834004AE
:102FC000F456800146F6DFE4800B0102040810206D
:102FD00040809033A4E47E019360BCA3FF543F3053
:102FE000E509541FFEE493A360010ECF54C025E011
:102FF00060A840B8E493A3FAE493A3F8E493A3C8C9
:10300000C582C8CAC583CAF0A3C8C582C8CAC58359
:10301000CADFE9DEE780BE0FFFFF0000000000000E
:1030200000FFFFFFFFFFFFFFFFFF000000000000A9
:103030000000000000000000000000000000000090
:103040000000000000000000000000000000000080
:103050000000000000000000000000000000000070
:103060000000000000000000000000000000000060
:103070000000000000000000000000000000000050
:103080000000000000000000000000000000000040
:1030900000000000000000902EC0E4F0902ECB74E1
:1030A000F7F0902F58E0540F24F0902EC8F0902E97
:1030B000CC7448F0902EC97428F0A3743FF0902E81
:1030C00040748112127BF0A3F0A30412127B7402ED
:1030D000F0A37481F0902EC67414F0902EC17490F9
:1030E000F0A37401F0A374F0F0A3740AF043E310AA
:1030F0001235FA900012EFF022C0E0C0F0C083C099
:1031000082C0D0E8C0E0ECC0E0EDC0E0EEC0E0EF8F
:10311000C0E0D2AF9001F4E004F0C3940A4017E499
:10312000F01210C02401FFE43EFEE43DFDE43CFC4F
:103130009002E91229E8D0E0FFD0E0FED0E0FDD017
:10314000E0FCD0E0F8D0D0D082D083D0F0D0E03214
:103150007E007F807D007B017A03797B122A31E437
:1031600090037BF090037D7406F090038D74ABF0B8
:1031700090038F7488F0900427E0900381F090040E
:1031800025E0900382F0900428E0900383F0122E53
:103190004C900378E0600890037C74E8F08005E4CC
:1031A00090037CF0023299900423EDF0900422EF1A
:1031B000F0A3E0FE1212B6F583E5822E1210E9E0CC
:1031C0006035900422E0121486C083C082900423EC
:1031D000E0D082D0831210AF1213DB902A74121148
:1031E000744014900423E0FF900422E01212B712FE
:1031F00010E4E4F07F01227F0022900423EDF090A0
:103200000422EFF0A3E0FE1212A9F583E5822E124C
:1032100010E9E06032900422E0121478C083C0828A
:10322000900423E0D082D0831210AF902A72121142
:10323000684014900423E0FF900422E01212AA12C6
:1032400010E4E4F07F01227F00229004007410F06B
:10325000A3E4F0A3743FF0A374FFF0E4FDFCF99045
:103260000400E0FEA3E02DF582EE3CF583E493FF3D
:1032700069F90DBD00010CBC2FE5BDFFE290040211
:10328000E0FEA3E0F5828E83E493697006900378F4
:1032900004F022E4900378F0229001D8A3E0900398
:1032A000D3F09001DAA3E09003D4F09001D2A3E030
:1032B0009003D5F09001D4A3E09003D6F09001DE06
:1032C000A3E09003D7F09001E0A3E09003D8F09042
:1032D0002BA07401939003D9F0902BA274019390CA
:1032E00003DAF022900426E0604190001612158463
:1032F00094BCEE940250069004287426F0C390000B
:1033000019E094BC900018E09402501290042874C4
:1033100027F0C3EF94BCEE940250037428F0E490BD
:103320000426F0900428E0900383F0227520011217
:10333000324A53A87F122F011236901236421235AC
:103340005F43A880758DE01235DDEF24E0600A242C
:1033500010700AC283C2828004D283D282122CB23D
:10336000438D2012239180DFCBEFCBEB64017017EC
:10337000121182E09003CBF0121196A3E09003CCDF
:10338000F0ECA3F0EDA3F0EB64027017121182E0F1
:103390009003CFF0121196A3E09003D0F0ECA3F0CD
:1033A000EDA3F02241024B004101F40041024E0026
:1033B000410013004102D900410374004101F300B0
:1033C0004103FB004103FC00420375000041037709
:1033D00000410379004103780041037A1000900412
:1033E000221213525030900422E0FFEB1212AA1264
:1033F00010E4E07021EB1212AA1210E47401F01232
:1034000010C0FFEB121478C083C082900422E0D079
:1034100082D08312156022900422121352503090F1
:103420000422E0FFEB1212B71210E4E07021EB125D
:1034300012B71210E47401F01210C0FFEB121486E0
:10344000C083C082900422E0D082D0831215602213
:10345000900403EFF0E0FF24F61213B2E06020EFD7
:103460001214941210B51213DB902A6812117440D2
:103470000E900403E024F61213B2E4F07F01227FE1
:103480000022900403EFF0E0FF24DA1213D3E0608F
:1034900020EF1214BE1210B51213DB902A6C121119
:1034A00074400E900403E024DA1213D3E4F07F0199
:1034B000227F0022E4FFFE900012E0FDEEC39D504B
:1034C0001C12109FE0FCA3E0FDEE1210A0E0FAA396
:1034D000E0D39DEA9C4003CFEECF0E80DA9001F25C
:1034E000EFF022900403EFF0E0FF24101213C8E085
:1034F000601AEF1214B01210B5121165400E90044C
:1035000003E024101213C8E4F07F01227F00229010
:103510000403E0FBA3E0FAA3E0F9229003FCE0FF40
:1035200004F08F82758300229004027401F022E976
:103530002FF9E43AFA0228CAE4F012368190040224
:10354000E0FF12135450171213AFE070111213AFB3
:103550007401F01210C0FFEB1214941229E82290AB
:1035600003FD7401F0A37403F0A3747BF0E4F5DAB7
:1035700075DA4043DA2075D74075DA5843A90875E3
:10358000B80875F8082212135450171213BAE070D5
:10359000111213BA7401F01210C0FFEB1214A21230
:1035A00029E82212135450171213C5E07011121398
:1035B000C57401F01210C0FFEB1214B01229E822FA
:1035C00012135450171213D0E070111213D074015B
:1035D000F01210C0FFEB1214BE1229E822E4FD9095
:1035E0000377E0601190037BE0FE54F0FDEE540F92
:1035F000F0E4900377F0CFEDCF22121509FFFEEE35
:10360000902A7E936009744F2F121515EEF00F0E5D
:10361000EEB410EB229002E91229F4000000007EC3
:10362000007F0B7D007B017A027905022A31EFD3FE
:103630009403500D1212B6F583E5822D1210E9E4C1
:10364000F02275B28E75B6F9E4F5B743B20143AA1C
:1036500001023615EFD39403500874F62F1213B2FB
:10366000E4F022EFD39403500874022F1213BDE448
:10367000F022EFD39403500874102F1213C8E4F013
:1036800022EFD39403500874DA2F1213D3E4F022FC
:103690001230979001F57401F0022D8EEE30E7079D
:1036A000C3E49FFFE49EFE22000000000000000033
:1036B000000000000000000000000000000000000A
:1036C00000000000000000000000000000000000FA
:1036D00000000000000000000000000000000000EA
:1036E00000000000000000000000000000000000DA
:103FF00000000000000000000000000000000012AF
:00000001FF
